S0160000426C7565746F6F74685F554152542E73726563BD
S11300000C942A000C943C000C943C000C943C008E
S11300100C943C000C943C000C943C000C943C006C
S11300200C943C000C943C000C943C000C943C005C
S11300300C943C000C943C000C943C000C943C004C
S11300400C943C000C943C000C943C000C943C003C
S11300500C943C0011241FBECFE5D8E0DEBFCDBF19
S113006020E0A0E6B0E001C01D92A036B207E1F79F
S11300700E9446000C949C000C940000549A80B595
S11300808E6880BD83E389B910BC08950E943E0048
S11300908FEF8ABBD89A2FEF34E38CE021503040A5
S11300A08040E1F700C000009FEFD89A5F9BFECF2D
S11300B08CB18133A9F49BBB2FEF34E38CE0215046
S11300C030408040E1F700C000001BBA2FEF34E35A
S11300D08CE0215030408040E1F700C0000018C09F
S11300E08823A9F0DA9A2FEF34E38CE021503040D2
S11300F08040E1F700C00000DA982FEF34E38CE091
S1130100215030408040E1F700C0000001C01BBA1C
S11301102FEF34E38CE0215030408040E1F700C001
S113012000001BBA2FEF31EE84E0215030408040B4
S10F0130E1F700C00000B9CFF894FFCF45
S9030000FC
