S01000004750535F554152542E737265638F
S11300000C942A000C9447000C9447000C9447006D
S11300100C9447000C9447000C9447000C94470040
S11300200C9447000C9447000C9447000C94470030
S11300300C9447000C94EB000C9447000C9447007C
S11300400C9447000C9447000C9447000C94470010
S11300500C94470011241FBECFE5D8E0DEBFCDBF0E
S113006010E0A0E6B0E0EEE9F3E002C005900D92E6
S1130070A037B107D9F721E0A0E7B0E001C01D9295
S1130080AD36B207E1F70E94BC000C94CD010C948C
S11300900000959A0000000082B3807C82BB089522
S11300A017BA979A82B3887F82BBC79B04C00E9409
S11300B04900C799FCCF8FEF87BB0895CF93C82F12
S11300C00E945000C8BB82B38B7782BB0E94490058
S11300D018BACF91089581B3846A81BB8FE697E102
S11300E00197F1F700C0000081E00E945E008FE1FB
S11300F09EE40197F1F700C0000088E30E945E00CF
S11301008FE19EE40197F1F700C000008CE00E94AB
S11301105E008FE19EE40197F1F700C000000895AE
S1130120CF93C82F0E945000C8BB9798929A0E9400
S1130130490018BACF910895CF93DF93EC018881D9
S1130140882331F021960E94900089918111FBCF80
S1130150DF91CF9108951BB88AB188698AB980B5B7
S1130160866880BD80B510BC85E089B910BC08954F
S11301705F9BFECF8CB1089510923E0110923D0119
S113018086E9E3E7F0E0DF011D928A95E9F784E16F
S1130190E9E0F1E0DF011D928A95E9F70E946B0026
S11301A081E00E945E0082E80E945E0089E690E0A1
S11301B00E949C0060E875E280E090E00E94AB0041
S11301C0BFEF29E688E1B15020408040E1F700C04C
S11301D000007894FFCF1F920F920FB60F92112454
S11301E02F933F934F935F936F937F938F939F933B
S11301F0AF93BF93CF93DF93EF93FF93DFB7F8945D
S11302000E94B800C82F8091700080580E945E0040
S11302108C2F0E9490008091700090917100019643
S11302208F30910539F480E490E0909371008093CD
S1130230700012C08F34910529F09093710080935F
S113024070000AC0109271001092700081E00E9448
S11302505E0080E80E945E00C43209F580E80E94D6
S11302605E0081E00E945E0089E690E00E949C00AE
S113027084E20E9490008091700090917100019638
S1130280909371008093700010923E0110923D0192
S113029010923C0110923B01109272006AC080914E
S11302A07200882389F1CC3299F480913B019091BA
S11302B03C019C012F5F3F4F30933C0120933B0155
S11302C020913D0130913E01FC01EF5AFE4F208305
S11302D080913D0190913E019C012F5F3F4F3093EF
S11302E03E0120933D01FC01ED58FF4FC0838C2F4C
S11302F00E949000809170009091710001969093FB
S113030071008093700035C080913F01873451F5AE
S113031080914001873431F580914101813411F598
S113032080E80E945E008BE690E00E949C00809131
S11303307000909171000396909371008093700007
S11303402FEF83EC99E0215080409040E1F700C00A
S1130350000081E080937200EFE3F1E010821182EB
S1130360128207C0EFE3F1E081818083828181837F
S1130370C283DFBFFF91EF91DF91CF91BF91AF9126
S11303809F918F917F916F915F914F913F912F91A9
S11103900F900FBE0F901F901895F894FFCF9A
S113039E25643A25643A2564002400474741000049
S9030000FC
