S0130000536572766F2B4D6F746F722E73726563C6
S11300000C942A000C9434000C9434000C943400A6
S11300100C9434000C9434000C9434000C9434008C
S11300200C9434000C9434000C9434000C9434007C
S11300300C9434000C9434000C9434000C9434006C
S11300400C9434000C9434000C9434000C9434005C
S11300500C94340011241FBECFE5D8E0DEBFCDBF21
S11300600E9436000C947B000C9400008D9A1DBCF9
S11300701CBC8FB5826A8FBD8EB58B618EBD8BED36
S113008095E097BD86BD81B3806381BB61E670E076
S11300904CE351E029EA31E087E192E07BBD6ABD9F
S11300A0AFE9E6E8F1E0A150E040F040E1F700C03C
S11300B000005BBD4ABDAFE9E6E8F1E0A150E040D5
S11300C0F040E1F700C000003BBD2ABDAFE9E6E81F
S11300D0F1E0A150E040F040E1F700C000009BBD1A
S11300E08ABDAFE9E6E8F1E0A150E040F040E1F775
S10D00F000C00000D3CFF894FFCF46
S9030000FC
