:100000000C942A000C943C000C943C000C943C0092
:100010000C943C000C943C000C943C000C943C0070
:100020000C943C000C943C000C943C000C943C0060
:100030000C943C000C943C000C943C000C943C0050
:100040000C943C000C943C000C943C000C943C0040
:100050000C943C0011241FBECFE5D8E0DEBFCDBF1D
:1000600020E0A0E6B0E001C01D92A336B207E1F7A0
:100070000E9483000C9495000C94000086B597B5FF
:10008000805A9F409BBD8ABD089586B597B5885517
:100090009B419BBD8ABD0895809162008FBD809178
:1000A00060008EBD8091610090E097BD86BD08958F
:1000B0008FB5826C8FBD8EB589618EBD8FE19EE458
:1000C00097BD86BD08950E9458000E943E002FE70C
:1000D0008AE196E0215080409040E1F700C00000A6
:1000E0000E944C0008950E9458000E9445002FE78E
:1000F0008AE196E0215080409040E1F700C0000086
:100100000E944C000895D09A8FEF81BB8FB58093E9
:1001100062008EB58093600086B597B580936100CC
:0E0120000E9463000E947300FBCFF894FFCF93
:00000001FF
