:100000000C942A000C943C000C943E000C9460006C
:100010000C943C000C943C000C943C000C943C0070
:100020000C943C000C943C000C943C000C943C0060
:100030000C943C000C943C000C943C000C943C0050
:100040000C943C000C943C000C943C000C943C0040
:100050000C943C0011241FBECFE5D8E0DEBFCDBF1D
:1000600020E0A0E6B0E001C01D92A136B207E1F7A2
:100070000E9482000C9495000C9400001F920F9235
:100080000FB60F9211248F939F938091600090E0A0
:1000900001968F709078992324F40197806F9F6F59
:1000A000019680936000809160008BBB8AB7806E60
:1000B0008ABF9F918F910F900FBE0F901F90189540
:1000C0001F920F920FB60F9211248F939F938091DE
:1000D000600090E00F968F709078992324F4019738
:1000E000806F9F6F019680936000809160008BBB52
:1000F0008AB7806E8ABF9F918F910F900FBE0F902D
:100100001F9018958FEF8ABB85B7886085BF85B72C
:100110008B7F85BF84B78F7B84BF8BB7806A8BBF93
:0E0120007894809160008BBBFFCFF894FFCFE6
:00000001FF
