S0170000446F745F4D61747269785F436861722E7372656335
S11300000C942A000C943F000C943F000C943F0085
S11300100C943F000C943F000C943F000C943F0060
S11300200C943F000C943F000C943F000C943F0050
S11300300C943F000C943F000C943F000C943F0040
S11300400C943F000C943F000C943F000C943F0030
S11300500C943F0011241FBECFE5D8E0DEBFCDBF16
S113006012E0A0E6B0E0E2E2F1E002C005900D92F9
S1130070A030B107D9F70E9462000C948F000C9451
S11300800000AC0142955295507F5427407F54277D
S1130090FA01E05AFF4F6081718142595F4F22811A
S11300A0338121933193E417F507C9F7829592952B
S11300B0907F9827807F9827FC01E05AFF4F77872D
S11300C06687089580E884BF84BF8FEF8ABB84BBB2
S11300D0C1E0D0E048EC50E017C09E01082E02C0F9
S11300E0220F331F0A94E2F72BBB208132962F771D
S11300F025BB26EA2A95F1F700C0019688309105C0
S113010061F74150510929F0E0EEF1E080E090E020
S1130110E4CF1BBA88E190E00E944100DBCFF89461
S1050120FFCF0B
S113012200007F00FF00CC00CC00CC00FF007F0069
S113013200003C007E00DB00DB00DB00FF00FF0070
S11301420000C300C300C300C300E7007E003C00FC
S113015200007E00BD00C300C300C300FF00FF0017
S11301620000DB00DB00DB00DB00DB00FF00FF0044
S11301720000D800D800D800D800D800FF00FF0043
S11301821F00DF00DB00DB00C300C300FF00FF0031
S11301920000FF00FF00180018001800FF00FF0015
S11301A2C300C300C300FF00FF00C300C300C300B9
S11301B2C000C000C000FF00FF00C300CF00CF009A
S11301C20000C300E7007E003C001800FF00FF00AF
S11301D2000003000300030003000300FF00FF000C
S11301E2FF00FF006000700070006000FF00FF006D
S11301F2FF00FF001C0038007000E000FF00FF0059
S11302027E00FF00C300C300C300C300FF007E00E2
S113021200007000F800CC00CC00CC00FF00FF000E
S11302227E00FF00CF00DF00DB00C300FF007E0082
S11302327900FB00DF00DE00DC00D800FF00FF00D5
S1130242CE00DF00DB00DB00DB00DB00FB00730021
S1130252C000C000C000FF00FF00C000C000C0001A
S1130262FE00FF000300030003000300FF00FE0082
S1130272E000FC001E00030003001E00FC00E0007E
S1130282FE00FF000300FF00FF000300FF00FE006A
S11302924200E7007E003C003C007E00E700420092
S11302A2FF00FF000E001C0038007000FF00FF007A
S11302B2C300E300F300FB00DF00CF00C700C3006C
S9030000FC
