S01700004763634170706C69636174696F6E312E737265635B
S11300000C942A000C9434000C9434000C943400A6
S11300100C9434000C9434000C9434000C9434008C
S11300200C9434000C9434000C9434000C9434007C
S11300300C9434000C9434000C9434000C9434006C
S11300400C9434000C9434000C9434000C9434005C
S11300500C94340011241FBECFE5D8E0DEBFCDBF21
S11300600E9436000C946A000C94000017BA8FEFBB
S11300708ABB1BBA20E030E086B385FF15C02F5F32
S11300803F4FA9014F705078552334F44150510922
S1130090406F5F6F4F5F5F4F9A014BBBEBE7F2E935
S11300A03197F1F700C0000086FFE6CF215F3F4F94
S11300B0C9018F709078992324F40197806F9F6F02
S11300C001969C018BBB8FE493EC0197F1F700C080
S10B00D00000D2CFF894FFCF29
S9030000FC
