:100000000C942A000C9434000C9455000C94340089
:100010000C9434000C9434000C9434000C94340090
:100020000C9434000C9434000C9434000C94340080
:100030000C9434000C9434000C9434000C94340070
:100040000C9434000C9434000C9434000C94340060
:100050000C94340011241FBECFE5D8E0DEBFCDBF25
:100060000E947C000C9496000C94000086B597B515
:10007000845F91409BBD8ABD2FED82E292E02150CA
:1000800080409040E1F700C0000086B597B58859E0
:1000900098409BBD8ABD2FED82E292E021508040C6
:1000A0009040E1F700C0000008951F920F920FB634
:1000B0000F9211242F933F934F935F936F937F93EE
:1000C0008F939F93AF93BF93EF93FF930E9436005C
:1000D0008AB7806E8ABFFF91EF91BF91AF919F91D8
:1000E0008F917F916F915F914F913F912F910F90E1
:1000F0000FBE0F901F9018958FEF81BB8FB5826C4C
:100100008FBD8EB589618EBD8FE19EE497BD86BDA2
:1001100085B7886085BF85B78B7F85BF84B78F7BA8
:1001200084BF8BB780688BBF7894FFCFF894FFCFE4
:00000001FF
