S017000055534152545F426C7565746F6F74682E7372656369
S11300000C942A000C9434000C9434000C943400A6
S11300100C9434000C9434000C9434000C9434008C
S11300200C9434000C9434000C9434000C9434007C
S11300300C9434000C94AD020C9434000C943400F1
S11300400C9434000C9434000C9434000C9434005C
S11300500C94340011241FBECFE5D8E0DEBFCDBF21
S11300600E949D020C9429030C940000672B09F054
S11300709FC0009711F4D89808958130910511F428
S1130080D99808958230910511F4DA98089583304F
S1130090910511F4DB9808958430910511F4DC98EE
S11300A008958530910511F4DD9808958630910501
S11300B011F4DE9808958730910511F4DF980895BE
S11300C08A30910511F4C09808958B30910511F48C
S11300D0C19808958C30910511F4C29808958D301B
S11300E0910511F4C39808958E30910511F4C498C4
S11300F008958F30910511F4C598089580319105C4
S113010011F4C69808958131910511F4C7980895A2
S11301108431910511F4A89808958531910511F45D
S1130120A99808958631910511F4AA980895873104
S1130130910511F4AB9808958831910511F4AC98A8
S113014008958931910511F4AD9808958A31910586
S113015011F4AE9808958B31910511F4AF98089578
S11301608E31910511F4909808958F31910511F411
S1130170919808958032910511F4929808958132EE
S1130180910511F4939808958232910511F494988D
S113019008958332910511F4959808958432910558
S11301A011F496980895859709F09FC0979808953B
S11301B0009711F4D89A08958130910511F4D99AD1
S11301C008958230910511F4DA9A089583309105E7
S11301D011F4DB9A08958430910511F4DC9A0895A2
S11301E08530910511F4DD9A08958630910511F456
S11301F0DE9A08958730910511F4DF9A08958A30C4
S1130200910511F4C09A08958B30910511F4C19AA7
S113021008958C30910511F4C29A08958D3091059A
S113022011F4C39A08958E30910511F4C49A089577
S11302308F30910511F4C59A08958031910511F418
S1130240C69A08958131910511F4C79A08958431AD
S1130250910511F4A89A08958531910511F4A99A8C
S113026008958631910511F4AA9A0895873191056C
S113027011F4AB9A08958831910511F4AC9A08955C
S11302808931910511F4AD9A08958A31910511F4DB
S1130290AE9A08958B31910511F4AF9A08958E3179
S11302A0910511F4909A08958F31910511F4919A62
S11302B008958032910511F4929A0895813291053E
S11302C011F4939A08958232910511F4949A089541
S11302D08332910511F4959A08958432910511F4AD
S11302E0969A0895859709F4979A0895CF93C82FFD
S11302F080FF07C061E070E082E290E00E94360077
S113030006C060E070E082E290E00E943600C1FF27
S113031007C061E070E083E290E00E94360006C00E
S113032060E070E083E290E00E943600C2FF07C004
S113033061E070E084E290E00E94360006C060E074
S113034070E084E290E00E943600C3FF07C061E0E1
S113035070E085E290E00E94360006C060E070E044
S113036085E290E00E943600CF910895CF93C82F84
S113037060E070E08AE190E00E9436008C2F0E94D9
S1130380760161E070E08BE190E00E9436008FEC32
S113039097E00197F1F700C0000060E070E08BE1A6
S11303A090E00E9436008FEC97E00197F1F700C0CF
S11303B00000CF910895CF93C62F813059F480E87F
S11303C0860F82958F700E94B6018C2F8F700E94C9
S11303D0B6010CC0823051F480EC860F82958F7088
S11303E00E94B6018C2F8F700E94B601CF910895A0
S11303F080E00E9476018FE39CE90197F1F700C049
S1130400000083E00E94B6018FE097E20197F1F7C4
S113041000C0000083E00E94B6018FEE95E50197CD
S1130420F1F700C0000083E00E94B60182E00E9460
S1130430B60182E00E94B60188E00E94B60180E025
S11304400E94B6018CE00E94B60180E00E94B601D1
S113045086E00E94B6010895CF93C82F61E070E052
S11304608AE190E00E9436008C2F82958F700E9462
S1130470760161E070E08BE190E00E9436008FEC41
S113048097E00197F1F700C0000060E070E08BE1B5
S113049090E00E9436008FEC97E00197F1F700C0DE
S11304A000008C2F8F700E94760161E070E08BE178
S11304B090E00E9436008FEC97E00197F1F700C0BE
S11304C0000060E070E08BE190E00E9436008FEC69
S11304D097E00197F1F700C00000CF9108952AB189
S11304E028692AB920B5266820BDDC01CB01880F14
S11304F0991FAA1FBB1F880F991FAA1FBB1F9C010E
S1130500AD01220F331F441F551F220F331F441FF9
S1130510551F60E072E18AE790E00E9407038FEFC5
S1130520820F89B9DA01C9010197A109B109892F9B
S11305309A2FAB2FBB2780BD08958FEF8ABB81BB59
S113054084BB0E94F801D99A60E875E280E090E0EB
S11305500E946F027894D99AFECF1F920F920FB621
S11305600F9211242F933F934F935F936F937F9335
S11305708F939F93AF93BF93CF93DF93EF93FF93A7
S1130580DFB7F894CCB161E081E00E94DB018C2FED
S11305900E942C02CBBB2FEF85EA9EE021508040C5
S11305A09040E1F700C000001BBA2FE788E391E018
S11305B0215080409040E1F700C000008FEF8BBBDA
S11305C02FEF80E792E0215080409040E1F700C097
S11305D000001BBA2FEF80E792E02150804090404A
S11305E0E1F700C00000DFBFFF91EF91DF91CF91F1
S11305F0BF91AF919F918F917F916F915F914F9137
S11306003F912F910F900FBE0F901F901895A1E26C
S11306101A2EAA1BBB1BFD010DC0AA1FBB1FEE1F78
S1130620FF1FA217B307E407F50720F0A21BB30BC3
S1130630E40BF50B661F771F881F991F1A9469F73F
S113064060957095809590959B01AC01BD01CF019B
S10906500895F894FFCFA9
S9030000FC
