S0170000536572766F5F496E746572727570742E73726563D2
S11300000C942A000C943C000C943E000C945B006D
S11300100C943C000C943C000C943C000C943C006C
S11300200C943C000C943C000C943C000C943C005C
S11300300C943C000C943C000C943C000C943C004C
S11300400C943C000C943C000C943C000C943C003C
S11300500C943C0011241FBECFE5D8E0DEBFCDBF19
S113006020E0A0E6B0E001C01D92A036B207E1F79F
S11300700E9478000C9487000C9400001F920F9249
S11300800FB60F9211242F938F939F931BBA2FE9CE
S113009086E891E0215080409040E1F700C00000E4
S11300A08AB7806E8ABF9F918F912F910F900FBE58
S11300B00F901F9018951F920F920FB60F92112454
S11300C02F938F939F931BBA2FE986E891E02150D9
S11300D080409040E1F700C000008AB7806E8ABF7C
S11300E09F918F912F910F900FBE0F901F90189595
S11300F08FEF8ABB85B7836085BF85B78C6085BF6A
S11301008BB7806C8BBF78948FEF8BBBFECFF8944A
S1050110FFCF1B
S9030000FC
